{
  "contractName": "DFlix",
  "abi": [
    {
      "inputs": [
        {
          "internalType": "address",
          "name": "_poolAddress",
          "type": "address"
        }
      ],
      "stateMutability": "nonpayable",
      "type": "constructor"
    },
    {
      "anonymous": false,
      "inputs": [
        {
          "indexed": false,
          "internalType": "uint256",
          "name": "id",
          "type": "uint256"
        },
        {
          "indexed": false,
          "internalType": "uint256",
          "name": "videoId",
          "type": "uint256"
        },
        {
          "indexed": false,
          "internalType": "address",
          "name": "author",
          "type": "address"
        }
      ],
      "name": "PrivateVideoEvent",
      "type": "event"
    },
    {
      "anonymous": false,
      "inputs": [
        {
          "indexed": false,
          "internalType": "string",
          "name": "id",
          "type": "string"
        },
        {
          "indexed": false,
          "internalType": "string",
          "name": "endDate",
          "type": "string"
        },
        {
          "indexed": false,
          "internalType": "string",
          "name": "startDate",
          "type": "string"
        },
        {
          "indexed": false,
          "internalType": "address",
          "name": "author",
          "type": "address"
        },
        {
          "indexed": false,
          "internalType": "bool",
          "name": "subscribed",
          "type": "bool"
        }
      ],
      "name": "SubscriptionEvent",
      "type": "event"
    },
    {
      "anonymous": false,
      "inputs": [
        {
          "indexed": false,
          "internalType": "uint256",
          "name": "id",
          "type": "uint256"
        },
        {
          "indexed": false,
          "internalType": "string",
          "name": "_hash",
          "type": "string"
        },
        {
          "indexed": false,
          "internalType": "string",
          "name": "thumbnalHash",
          "type": "string"
        },
        {
          "indexed": false,
          "internalType": "string",
          "name": "title",
          "type": "string"
        },
        {
          "indexed": false,
          "internalType": "string",
          "name": "description",
          "type": "string"
        },
        {
          "indexed": false,
          "internalType": "bool",
          "name": "isPrivate",
          "type": "bool"
        },
        {
          "indexed": false,
          "internalType": "uint256",
          "name": "fees",
          "type": "uint256"
        },
        {
          "indexed": false,
          "internalType": "bool",
          "name": "isSubscription",
          "type": "bool"
        },
        {
          "indexed": false,
          "internalType": "address",
          "name": "author",
          "type": "address"
        }
      ],
      "name": "VideoUploadEvent",
      "type": "event"
    },
    {
      "inputs": [],
      "name": "dappName",
      "outputs": [
        {
          "internalType": "string",
          "name": "",
          "type": "string"
        }
      ],
      "stateMutability": "view",
      "type": "function",
      "constant": true
    },
    {
      "inputs": [],
      "name": "numPrivateVideo",
      "outputs": [
        {
          "internalType": "uint256",
          "name": "",
          "type": "uint256"
        }
      ],
      "stateMutability": "view",
      "type": "function",
      "constant": true
    },
    {
      "inputs": [],
      "name": "numSubscribers",
      "outputs": [
        {
          "internalType": "uint256",
          "name": "",
          "type": "uint256"
        }
      ],
      "stateMutability": "view",
      "type": "function",
      "constant": true
    },
    {
      "inputs": [],
      "name": "numVideo",
      "outputs": [
        {
          "internalType": "uint256",
          "name": "",
          "type": "uint256"
        }
      ],
      "stateMutability": "view",
      "type": "function",
      "constant": true
    },
    {
      "inputs": [],
      "name": "poolAddress",
      "outputs": [
        {
          "internalType": "address",
          "name": "",
          "type": "address"
        }
      ],
      "stateMutability": "view",
      "type": "function",
      "constant": true
    },
    {
      "inputs": [],
      "name": "poolFunds",
      "outputs": [
        {
          "internalType": "uint256",
          "name": "",
          "type": "uint256"
        }
      ],
      "stateMutability": "view",
      "type": "function",
      "constant": true
    },
    {
      "inputs": [
        {
          "internalType": "uint256",
          "name": "",
          "type": "uint256"
        }
      ],
      "name": "privateVideosMapping",
      "outputs": [
        {
          "internalType": "uint256",
          "name": "id",
          "type": "uint256"
        },
        {
          "internalType": "uint256",
          "name": "videoId",
          "type": "uint256"
        },
        {
          "internalType": "address",
          "name": "author",
          "type": "address"
        }
      ],
      "stateMutability": "view",
      "type": "function",
      "constant": true
    },
    {
      "inputs": [
        {
          "internalType": "string",
          "name": "",
          "type": "string"
        }
      ],
      "name": "subscription",
      "outputs": [
        {
          "internalType": "string",
          "name": "id",
          "type": "string"
        },
        {
          "internalType": "string",
          "name": "endDate",
          "type": "string"
        },
        {
          "internalType": "string",
          "name": "startDate",
          "type": "string"
        },
        {
          "internalType": "address",
          "name": "author",
          "type": "address"
        },
        {
          "internalType": "bool",
          "name": "subscribed",
          "type": "bool"
        }
      ],
      "stateMutability": "view",
      "type": "function",
      "constant": true
    },
    {
      "inputs": [
        {
          "internalType": "uint256",
          "name": "",
          "type": "uint256"
        }
      ],
      "name": "videos",
      "outputs": [
        {
          "internalType": "uint256",
          "name": "id",
          "type": "uint256"
        },
        {
          "internalType": "string",
          "name": "_hash",
          "type": "string"
        },
        {
          "internalType": "string",
          "name": "thumbnalHash",
          "type": "string"
        },
        {
          "internalType": "string",
          "name": "title",
          "type": "string"
        },
        {
          "internalType": "string",
          "name": "description",
          "type": "string"
        },
        {
          "internalType": "bool",
          "name": "isPrivate",
          "type": "bool"
        },
        {
          "internalType": "uint256",
          "name": "fees",
          "type": "uint256"
        },
        {
          "internalType": "bool",
          "name": "isSubscription",
          "type": "bool"
        },
        {
          "internalType": "address",
          "name": "author",
          "type": "address"
        }
      ],
      "stateMutability": "view",
      "type": "function",
      "constant": true
    },
    {
      "inputs": [
        {
          "internalType": "string",
          "name": "_videoHash",
          "type": "string"
        },
        {
          "internalType": "string",
          "name": "_title",
          "type": "string"
        },
        {
          "internalType": "string",
          "name": "_thumbnailHash",
          "type": "string"
        },
        {
          "internalType": "string",
          "name": "_description",
          "type": "string"
        },
        {
          "internalType": "bool",
          "name": "_isPrivate",
          "type": "bool"
        },
        {
          "internalType": "uint256",
          "name": "_fees",
          "type": "uint256"
        },
        {
          "internalType": "bool",
          "name": "_isSubscription",
          "type": "bool"
        }
      ],
      "name": "uploadVideo",
      "outputs": [],
      "stateMutability": "nonpayable",
      "type": "function"
    },
    {
      "inputs": [
        {
          "internalType": "string",
          "name": "subscriptionId",
          "type": "string"
        },
        {
          "internalType": "string",
          "name": "from",
          "type": "string"
        },
        {
          "internalType": "string",
          "name": "to",
          "type": "string"
        }
      ],
      "name": "buySubscription",
      "outputs": [],
      "stateMutability": "payable",
      "type": "function",
      "payable": true
    },
    {
      "inputs": [
        {
          "internalType": "uint256",
          "name": "videoId",
          "type": "uint256"
        }
      ],
      "name": "buyPrivateVideo",
      "outputs": [],
      "stateMutability": "payable",
      "type": "function",
      "payable": true
    }
  ],
  "bytecode": "0x608060405260006001556000600255600060035560006004556040518060400160405280600581526020017f64666c69780000000000000000000000000000000000000000000000000000008152506005908051906020019062000065929190620000e0565b503480156200007357600080fd5b5060405162001c3438038062001c348339818101604052810190620000999190620001a7565b806000806101000a81548173ffffffffffffffffffffffffffffffffffffffff021916908373ffffffffffffffffffffffffffffffffffffffff1602179055505062000286565b828054620000ee9062000207565b90600052602060002090601f0160209004810192826200011257600085556200015e565b82601f106200012d57805160ff19168380011785556200015e565b828001600101855582156200015e579182015b828111156200015d57825182559160200191906001019062000140565b5b5090506200016d919062000171565b5090565b5b808211156200018c57600081600090555060010162000172565b5090565b600081519050620001a1816200026c565b92915050565b600060208284031215620001ba57600080fd5b6000620001ca8482850162000190565b91505092915050565b6000620001e082620001e7565b9050919050565b600073ffffffffffffffffffffffffffffffffffffffff82169050919050565b600060028204905060018216806200022057607f821691505b602082108114156200023757620002366200023d565b5b50919050565b7f4e487b7100000000000000000000000000000000000000000000000000000000600052602260045260246000fd5b6200027781620001d3565b81146200028357600080fd5b50565b61199e80620002966000396000f3fe6080604052600436106100a75760003560e01c80637a8d55aa116100645780637a8d55aa146101b15780638e80e0e0146101dc5780639c7ab7671461021d578063bc2104d214610248578063c3189c3814610273578063e6821bf51461028f576100a7565b80631755ff21146100ac5780633d2a15a0146100d75780634f81c1ff14610100578063596539e21461012b578063722cec711461016a57806379d82e7114610186575b600080fd5b3480156100b857600080fd5b506100c16102d4565b6040516100ce919061146e565b60405180910390f35b3480156100e357600080fd5b506100fe60048036038101906100f991906111c4565b6102f8565b005b34801561010c57600080fd5b5061011561054a565b6040516101229190611489565b60405180910390f35b34801561013757600080fd5b50610152600480360381019061014d91906112c2565b6105d8565b60405161016193929190611617565b60405180910390f35b610184600480360381019061017f919061112d565b610622565b005b34801561019257600080fd5b5061019b610879565b6040516101a89190611553565b60405180910390f35b3480156101bd57600080fd5b506101c661087f565b6040516101d39190611553565b60405180910390f35b3480156101e857600080fd5b5061020360048036038101906101fe91906110ec565b610885565b6040516102149594939291906114ab565b60405180910390f35b34801561022957600080fd5b50610232610a96565b60405161023f9190611553565b60405180910390f35b34801561025457600080fd5b5061025d610a9c565b60405161026a9190611553565b60405180910390f35b61028d600480360381019061028891906112c2565b610aa2565b005b34801561029b57600080fd5b506102b660048036038101906102b191906112c2565b610d0f565b6040516102cb9998979695949392919061156e565b60405180910390f35b60008054906101000a900473ffffffffffffffffffffffffffffffffffffffff1681565b600087511161030657600080fd5b600085511161031457600080fd5b600086511161032257600080fd5b600073ffffffffffffffffffffffffffffffffffffffff163373ffffffffffffffffffffffffffffffffffffffff16141561035c57600080fd5b6002600081548092919061036f90611824565b91905055506040518061012001604052806002548152602001888152602001868152602001878152602001858152602001841515815260200183815260200182151581526020013373ffffffffffffffffffffffffffffffffffffffff1681525060066000600254815260200190815260200160002060008201518160000155602082015181600101908051906020019061040b929190610fb7565b506040820151816002019080519060200190610428929190610fb7565b506060820151816003019080519060200190610445929190610fb7565b506080820151816004019080519060200190610462929190610fb7565b5060a08201518160050160006101000a81548160ff02191690831515021790555060c0820151816006015560e08201518160070160006101000a81548160ff0219169083151502179055506101008201518160070160016101000a81548173ffffffffffffffffffffffffffffffffffffffff021916908373ffffffffffffffffffffffffffffffffffffffff1602179055509050507f17b6005cab0d8a55ff705595bce375e4433f04a173bf295f792f0451700dcc4160025488878988888888336040516105399998979695949392919061156e565b60405180910390a150505050505050565b60058054610557906117f2565b80601f0160208091040260200160405190810160405280929190818152602001828054610583906117f2565b80156105d05780601f106105a5576101008083540402835291602001916105d0565b820191906000526020600020905b8154815290600101906020018083116105b357829003601f168201915b505050505081565b60086020528060005260406000206000915090508060000154908060010154908060020160009054906101000a900473ffffffffffffffffffffffffffffffffffffffff16905083565b6007836040516106329190611442565b908152602001604051809103902060030160149054906101000a900460ff1615610691576040517f08c379a000000000000000000000000000000000000000000000000000000000815260040161068890611533565b60405180910390fd5b600073ffffffffffffffffffffffffffffffffffffffff163373ffffffffffffffffffffffffffffffffffffffff1614156106cb57600080fd5b6103e860016106da9190611737565b3373ffffffffffffffffffffffffffffffffffffffff1631116106fc57600080fd5b6040518060a001604052808481526020018281526020018381526020013373ffffffffffffffffffffffffffffffffffffffff1681526020016001151581525060078460405161074c9190611442565b90815260200160405180910390206000820151816000019080519060200190610776929190610fb7565b506020820151816001019080519060200190610793929190610fb7565b5060408201518160020190805190602001906107b0929190610fb7565b5060608201518160030160006101000a81548173ffffffffffffffffffffffffffffffffffffffff021916908373ffffffffffffffffffffffffffffffffffffffff16021790555060808201518160030160146101000a81548160ff021916908315150217905550905050600180600082825461082d91906116e1565b925050819055507f2c72bde69bd4c6e20d152c68cbbeb1a8178c6a9eaba0d906fb0f9f4feed001fe83828433600160405161086c9594939291906114ab565b60405180910390a1505050565b60025481565b60045481565b6007818051602081018201805184825260208301602085012081835280955050505050506000915090508060000180546108be906117f2565b80601f01602080910402602001604051908101604052809291908181526020018280546108ea906117f2565b80156109375780601f1061090c57610100808354040283529160200191610937565b820191906000526020600020905b81548152906001019060200180831161091a57829003601f168201915b50505050509080600101805461094c906117f2565b80601f0160208091040260200160405190810160405280929190818152602001828054610978906117f2565b80156109c55780601f1061099a576101008083540402835291602001916109c5565b820191906000526020600020905b8154815290600101906020018083116109a857829003601f168201915b5050505050908060020180546109da906117f2565b80601f0160208091040260200160405190810160405280929190818152602001828054610a06906117f2565b8015610a535780601f10610a2857610100808354040283529160200191610a53565b820191906000526020600020905b815481529060010190602001808311610a3657829003601f168201915b5050505050908060030160009054906101000a900473ffffffffffffffffffffffffffffffffffffffff16908060030160149054906101000a900460ff16905085565b60035481565b60015481565b600073ffffffffffffffffffffffffffffffffffffffff163373ffffffffffffffffffffffffffffffffffffffff161415610adc57600080fd5b60066000828152602001908152602001600020600601543373ffffffffffffffffffffffffffffffffffffffff163111610b1557600080fd5b6000806006600084815260200190815260200160002060070160019054906101000a900473ffffffffffffffffffffffffffffffffffffffff1673ffffffffffffffffffffffffffffffffffffffff166006600085815260200190815260200160002060060154604051610b8890611459565b60006040518083038185875af1925050503d8060008114610bc5576040519150601f19603f3d011682016040523d82523d6000602084013e610bca565b606091505b509150915081610c0f576040517f08c379a0000000000000000000000000000000000000000000000000000000008152600401610c0690611513565b60405180910390fd5b60046000815480929190610c2290611824565b9190505550604051806060016040528060045481526020018481526020013373ffffffffffffffffffffffffffffffffffffffff16815250600860006004548152602001908152602001600020600082015181600001556020820151816001015560408201518160020160006101000a81548173ffffffffffffffffffffffffffffffffffffffff021916908373ffffffffffffffffffffffffffffffffffffffff1602179055509050507fffcb917edc283fd8a3f98c9b28b2bd1147090776b86775315be1c5959dbed3ff6004548433604051610d0293929190611617565b60405180910390a1505050565b6006602052806000526040600020600091509050806000015490806001018054610d38906117f2565b80601f0160208091040260200160405190810160405280929190818152602001828054610d64906117f2565b8015610db15780601f10610d8657610100808354040283529160200191610db1565b820191906000526020600020905b815481529060010190602001808311610d9457829003601f168201915b505050505090806002018054610dc6906117f2565b80601f0160208091040260200160405190810160405280929190818152602001828054610df2906117f2565b8015610e3f5780601f10610e1457610100808354040283529160200191610e3f565b820191906000526020600020905b815481529060010190602001808311610e2257829003601f168201915b505050505090806003018054610e54906117f2565b80601f0160208091040260200160405190810160405280929190818152602001828054610e80906117f2565b8015610ecd5780601f10610ea257610100808354040283529160200191610ecd565b820191906000526020600020905b815481529060010190602001808311610eb057829003601f168201915b505050505090806004018054610ee2906117f2565b80601f0160208091040260200160405190810160405280929190818152602001828054610f0e906117f2565b8015610f5b5780601f10610f3057610100808354040283529160200191610f5b565b820191906000526020600020905b815481529060010190602001808311610f3e57829003601f168201915b5050505050908060050160009054906101000a900460ff16908060060154908060070160009054906101000a900460ff16908060070160019054906101000a900473ffffffffffffffffffffffffffffffffffffffff16905089565b828054610fc3906117f2565b90600052602060002090601f016020900481019282610fe5576000855561102c565b82601f10610ffe57805160ff191683800117855561102c565b8280016001018555821561102c579182015b8281111561102b578251825591602001919060010190611010565b5b509050611039919061103d565b5090565b5b8082111561105657600081600090555060010161103e565b5090565b600061106d6110688461167f565b61164e565b90508281526020810184848401111561108557600080fd5b6110908482856117b0565b509392505050565b6000813590506110a78161193a565b92915050565b600082601f8301126110be57600080fd5b81356110ce84826020860161105a565b91505092915050565b6000813590506110e681611951565b92915050565b6000602082840312156110fe57600080fd5b600082013567ffffffffffffffff81111561111857600080fd5b611124848285016110ad565b91505092915050565b60008060006060848603121561114257600080fd5b600084013567ffffffffffffffff81111561115c57600080fd5b611168868287016110ad565b935050602084013567ffffffffffffffff81111561118557600080fd5b611191868287016110ad565b925050604084013567ffffffffffffffff8111156111ae57600080fd5b6111ba868287016110ad565b9150509250925092565b600080600080600080600060e0888a0312156111df57600080fd5b600088013567ffffffffffffffff8111156111f957600080fd5b6112058a828b016110ad565b975050602088013567ffffffffffffffff81111561122257600080fd5b61122e8a828b016110ad565b965050604088013567ffffffffffffffff81111561124b57600080fd5b6112578a828b016110ad565b955050606088013567ffffffffffffffff81111561127457600080fd5b6112808a828b016110ad565b94505060806112918a828b01611098565b93505060a06112a28a828b016110d7565b92505060c06112b38a828b01611098565b91505092959891949750929550565b6000602082840312156112d457600080fd5b60006112e2848285016110d7565b91505092915050565b6112f481611768565b82525050565b6113038161177a565b82525050565b6000611314826116af565b61131e81856116c5565b935061132e8185602086016117bf565b61133781611929565b840191505092915050565b600061134d826116af565b61135781856116d6565b93506113678185602086016117bf565b80840191505092915050565b60006113806014836116c5565b91507f4661696c656420746f2073656e642045746865720000000000000000000000006000830152602082019050919050565b60006113c06033836116c5565b91507f4f6f70732073797374656d206572726f722121204475706c696361746520737560008301527f62736372697074696f6e20696420666f756e64000000000000000000000000006020830152604082019050919050565b60006114266000836116ba565b9150600082019050919050565b61143c816117a6565b82525050565b600061144e8284611342565b915081905092915050565b600061146482611419565b9150819050919050565b600060208201905061148360008301846112eb565b92915050565b600060208201905081810360008301526114a38184611309565b905092915050565b600060a08201905081810360008301526114c58188611309565b905081810360208301526114d98187611309565b905081810360408301526114ed8186611309565b90506114fc60608301856112eb565b61150960808301846112fa565b9695505050505050565b6000602082019050818103600083015261152c81611373565b9050919050565b6000602082019050818103600083015261154c816113b3565b9050919050565b60006020820190506115686000830184611433565b92915050565b600061012082019050611584600083018c611433565b8181036020830152611596818b611309565b905081810360408301526115aa818a611309565b905081810360608301526115be8189611309565b905081810360808301526115d28188611309565b90506115e160a08301876112fa565b6115ee60c0830186611433565b6115fb60e08301856112fa565b6116096101008301846112eb565b9a9950505050505050505050565b600060608201905061162c6000830186611433565b6116396020830185611433565b61164660408301846112eb565b949350505050565b6000604051905081810181811067ffffffffffffffff82111715611675576116746118fa565b5b8060405250919050565b600067ffffffffffffffff82111561169a576116996118fa565b5b601f19601f8301169050602081019050919050565b600081519050919050565b600081905092915050565b600082825260208201905092915050565b600081905092915050565b60006116ec826117a6565b91506116f7836117a6565b9250827fffffffffffffffffffffffffffffffffffffffffffffffffffffffffffffffff0382111561172c5761172b61186d565b5b828201905092915050565b6000611742826117a6565b915061174d836117a6565b92508261175d5761175c61189c565b5b828204905092915050565b600061177382611786565b9050919050565b60008115159050919050565b600073ffffffffffffffffffffffffffffffffffffffff82169050919050565b6000819050919050565b82818337600083830152505050565b60005b838110156117dd5780820151818401526020810190506117c2565b838111156117ec576000848401525b50505050565b6000600282049050600182168061180a57607f821691505b6020821081141561181e5761181d6118cb565b5b50919050565b600061182f826117a6565b91507fffffffffffffffffffffffffffffffffffffffffffffffffffffffffffffffff8214156118625761186161186d565b5b600182019050919050565b7f4e487b7100000000000000000000000000000000000000000000000000000000600052601160045260246000fd5b7f4e487b7100000000000000000000000000000000000000000000000000000000600052601260045260246000fd5b7f4e487b7100000000000000000000000000000000000000000000000000000000600052602260045260246000fd5b7f4e487b7100000000000000000000000000000000000000000000000000000000600052604160045260246000fd5b6000601f19601f8301169050919050565b6119438161177a565b811461194e57600080fd5b50565b61195a816117a6565b811461196557600080fd5b5056fea26469706673582212208d09188cba059b5a30b3f28bd4978d4d1e595e1920530b78cfb26785168daf6464736f6c63430008000033",
  "immutableReferences": {},
  "source": "pragma solidity ^0.8.0;\n\ncontract DFlix {\n\n    uint constant private SUBSCRIPTION_AMOUNT = 1;   // JUST FOR TESTING KEEPING AMOUNT LOW\n    address public poolAddress;\n    uint public poolFunds = 0;\n    uint public numVideo = 0; \n    uint public numSubscribers = 0;\n    uint public numPrivateVideo = 0;\n    string public dappName = \"dflix\";\n    mapping(uint => VideoMetadata) public videos;\n    mapping(string => SubscriptionMetadata) public subscription;\n    mapping(uint => PrivateVideoMetadata) public privateVideosMapping;\n\n    struct VideoMetadata {\n        uint id;                // index of video\n        string _hash;            // IPFS hash of video to be stored\n        string thumbnalHash;    // Thumbnail hash\n        string title;           // Title of the video\n        string description;     // Description of the video\n        bool isPrivate;         // Private video (allowing only set of users to view this)\n        uint fees;              // If private how much is required to view the video (movies?)\n        bool isSubscription;    // included in subscription (FUTURE?)\n        address author;         // Creator's address\n    }\n\n    struct SubscriptionMetadata {\n        string id;                // subscription id\n        string endDate;          // end date\n        string startDate;         // starting date\n        address author;         // person buying subscription\n        bool subscribed;        // to check if user has subscribed\n    }\n\n    struct PrivateVideoMetadata {\n        uint id;                      // index\n        uint videoId;                // private video id\n        address author;              // address of the author\n    }\n\n    event VideoUploadEvent(\n        uint id,\n        string _hash,\n        string thumbnalHash,\n        string title,\n        string description,\n        bool isPrivate,\n        uint fees,\n        bool isSubscription,\n        address author\n    );\n\n    event SubscriptionEvent (\n        string id,              \n        string endDate,        \n        string startDate,        \n        address author,      \n        bool subscribed       \n    );\n\n    event PrivateVideoEvent (\n        uint id,                \n        uint videoId,              \n        address author\n    );\n\n    constructor(address _poolAddress) public {\n        poolAddress = _poolAddress;\n    }\n\n    function uploadVideo(string memory _videoHash, string memory _title, \n                            string memory _thumbnailHash,\n                            string memory _description, bool _isPrivate, \n                            uint _fees, bool _isSubscription) public {\n        \n        require(bytes(_videoHash).length > 0);  // validate if video hash is not empty\n        require(bytes(_thumbnailHash).length > 0);  // validate if thumbnail hash is not empty\n        require(bytes(_title).length > 0);      // validate if video title exists\n        require(msg.sender != address(0));      // validate if creator address exists\n\n        numVideo ++;        // Increment the video count (should this be included in reintrancy locks)?\n\n        videos[numVideo] = VideoMetadata(numVideo, _videoHash, _thumbnailHash,  _title, _description, _isPrivate, _fees, _isSubscription, msg.sender);   // Adding video to contract\n        emit VideoUploadEvent(numVideo, _videoHash, _thumbnailHash, _title, _description, _isPrivate, _fees, _isSubscription, msg.sender);  // Trigger upload video event\n\n    }\n\n    function buySubscription(string memory subscriptionId, string memory from, string memory to) public payable {\n        require(!subscription[subscriptionId].subscribed, \"Oops system error!! Duplicate subscription id found\");\n        require(msg.sender != address(0));      // validate if creator address exists\n        require((msg.sender.balance) > (uint(SUBSCRIPTION_AMOUNT)/1000));  // validate is user has sufficient balance\n        \n        // (bool sent, bytes memory data) = poolAddress.call{value: uint(SUBSCRIPTION_AMOUNT)}(\"\");\n        // require(sent, \"Failed to send Ether\");\n        subscription[subscriptionId] = SubscriptionMetadata(subscriptionId, to, from, msg.sender, true);\n        poolFunds += uint(SUBSCRIPTION_AMOUNT);\n        emit SubscriptionEvent(subscriptionId, to, from, msg.sender, true);\n    }\n\n    function buyPrivateVideo(uint videoId) public payable {\n        require(msg.sender != address(0));      // validate if creator address exists\n        require(msg.sender.balance > videos[videoId].fees);  // validate is user has sufficient balance\n        \n        (bool sent, bytes memory data) = videos[videoId].author.call{value: videos[videoId].fees}(\"\");\n        require(sent, \"Failed to send Ether\");\n        numPrivateVideo ++;\n        privateVideosMapping[numPrivateVideo] = PrivateVideoMetadata(numPrivateVideo, videoId, msg.sender);\n        emit PrivateVideoEvent(numPrivateVideo, videoId, msg.sender);\n    }\n}",
  "sourcePath": "/Users/sourav/workspace/uwm/CS839_Blockchain/xflicks/contracts/dflix.sol",
  "compiler": {
    "name": "solc",
    "version": "0.8.0+commit.c7dfd78e.Emscripten.clang"
  },
  "schemaVersion": "3.4.13",
  "updatedAt": "2023-05-02T00:53:33.770Z",
  "networkType": "ethereum",
  "devdoc": {
    "kind": "dev",
    "methods": {},
    "version": 1
  },
  "userdoc": {
    "kind": "user",
    "methods": {},
    "version": 1
  }
}