{
  "contractName": "DFlix",
  "abi": [
    {
      "inputs": [
        {
          "internalType": "address",
          "name": "_poolAddress",
          "type": "address"
        }
      ],
      "stateMutability": "nonpayable",
      "type": "constructor"
    },
    {
      "anonymous": false,
      "inputs": [
        {
          "indexed": false,
          "internalType": "uint256",
          "name": "id",
          "type": "uint256"
        },
        {
          "indexed": false,
          "internalType": "uint256",
          "name": "videoId",
          "type": "uint256"
        },
        {
          "indexed": false,
          "internalType": "address",
          "name": "author",
          "type": "address"
        }
      ],
      "name": "PrivateVideoEvent",
      "type": "event"
    },
    {
      "anonymous": false,
      "inputs": [
        {
          "indexed": false,
          "internalType": "string",
          "name": "id",
          "type": "string"
        },
        {
          "indexed": false,
          "internalType": "string",
          "name": "endDate",
          "type": "string"
        },
        {
          "indexed": false,
          "internalType": "string",
          "name": "startDate",
          "type": "string"
        },
        {
          "indexed": false,
          "internalType": "address",
          "name": "author",
          "type": "address"
        },
        {
          "indexed": false,
          "internalType": "bool",
          "name": "subscribed",
          "type": "bool"
        }
      ],
      "name": "SubscriptionEvent",
      "type": "event"
    },
    {
      "anonymous": false,
      "inputs": [
        {
          "indexed": false,
          "internalType": "uint256",
          "name": "id",
          "type": "uint256"
        },
        {
          "indexed": false,
          "internalType": "string",
          "name": "_hash",
          "type": "string"
        },
        {
          "indexed": false,
          "internalType": "string",
          "name": "title",
          "type": "string"
        },
        {
          "indexed": false,
          "internalType": "string",
          "name": "description",
          "type": "string"
        },
        {
          "indexed": false,
          "internalType": "bool",
          "name": "isPrivate",
          "type": "bool"
        },
        {
          "indexed": false,
          "internalType": "uint256",
          "name": "fees",
          "type": "uint256"
        },
        {
          "indexed": false,
          "internalType": "bool",
          "name": "isSubscription",
          "type": "bool"
        },
        {
          "indexed": false,
          "internalType": "address",
          "name": "author",
          "type": "address"
        }
      ],
      "name": "VideoUploadEvent",
      "type": "event"
    },
    {
      "inputs": [],
      "name": "dappName",
      "outputs": [
        {
          "internalType": "string",
          "name": "",
          "type": "string"
        }
      ],
      "stateMutability": "view",
      "type": "function",
      "constant": true
    },
    {
      "inputs": [],
      "name": "numPrivateVideo",
      "outputs": [
        {
          "internalType": "uint256",
          "name": "",
          "type": "uint256"
        }
      ],
      "stateMutability": "view",
      "type": "function",
      "constant": true
    },
    {
      "inputs": [],
      "name": "numSubscribers",
      "outputs": [
        {
          "internalType": "uint256",
          "name": "",
          "type": "uint256"
        }
      ],
      "stateMutability": "view",
      "type": "function",
      "constant": true
    },
    {
      "inputs": [],
      "name": "numVideo",
      "outputs": [
        {
          "internalType": "uint256",
          "name": "",
          "type": "uint256"
        }
      ],
      "stateMutability": "view",
      "type": "function",
      "constant": true
    },
    {
      "inputs": [],
      "name": "poolAddress",
      "outputs": [
        {
          "internalType": "address",
          "name": "",
          "type": "address"
        }
      ],
      "stateMutability": "view",
      "type": "function",
      "constant": true
    },
    {
      "inputs": [],
      "name": "poolFunds",
      "outputs": [
        {
          "internalType": "uint256",
          "name": "",
          "type": "uint256"
        }
      ],
      "stateMutability": "view",
      "type": "function",
      "constant": true
    },
    {
      "inputs": [
        {
          "internalType": "uint256",
          "name": "",
          "type": "uint256"
        }
      ],
      "name": "privateVideosMapping",
      "outputs": [
        {
          "internalType": "uint256",
          "name": "id",
          "type": "uint256"
        },
        {
          "internalType": "uint256",
          "name": "videoId",
          "type": "uint256"
        },
        {
          "internalType": "address",
          "name": "author",
          "type": "address"
        }
      ],
      "stateMutability": "view",
      "type": "function",
      "constant": true
    },
    {
      "inputs": [
        {
          "internalType": "string",
          "name": "",
          "type": "string"
        }
      ],
      "name": "subscription",
      "outputs": [
        {
          "internalType": "string",
          "name": "id",
          "type": "string"
        },
        {
          "internalType": "string",
          "name": "endDate",
          "type": "string"
        },
        {
          "internalType": "string",
          "name": "startDate",
          "type": "string"
        },
        {
          "internalType": "address",
          "name": "author",
          "type": "address"
        },
        {
          "internalType": "bool",
          "name": "subscribed",
          "type": "bool"
        }
      ],
      "stateMutability": "view",
      "type": "function",
      "constant": true
    },
    {
      "inputs": [
        {
          "internalType": "uint256",
          "name": "",
          "type": "uint256"
        }
      ],
      "name": "videos",
      "outputs": [
        {
          "internalType": "uint256",
          "name": "id",
          "type": "uint256"
        },
        {
          "internalType": "string",
          "name": "_hash",
          "type": "string"
        },
        {
          "internalType": "string",
          "name": "title",
          "type": "string"
        },
        {
          "internalType": "string",
          "name": "description",
          "type": "string"
        },
        {
          "internalType": "bool",
          "name": "isPrivate",
          "type": "bool"
        },
        {
          "internalType": "uint256",
          "name": "fees",
          "type": "uint256"
        },
        {
          "internalType": "bool",
          "name": "isSubscription",
          "type": "bool"
        },
        {
          "internalType": "address",
          "name": "author",
          "type": "address"
        }
      ],
      "stateMutability": "view",
      "type": "function",
      "constant": true
    },
    {
      "inputs": [
        {
          "internalType": "string",
          "name": "_videoHash",
          "type": "string"
        },
        {
          "internalType": "string",
          "name": "_title",
          "type": "string"
        },
        {
          "internalType": "string",
          "name": "_description",
          "type": "string"
        },
        {
          "internalType": "bool",
          "name": "_isPrivate",
          "type": "bool"
        },
        {
          "internalType": "uint256",
          "name": "_fees",
          "type": "uint256"
        },
        {
          "internalType": "bool",
          "name": "_isSubscription",
          "type": "bool"
        }
      ],
      "name": "uploadVideo",
      "outputs": [],
      "stateMutability": "nonpayable",
      "type": "function"
    },
    {
      "inputs": [
        {
          "internalType": "string",
          "name": "subscriptionId",
          "type": "string"
        },
        {
          "internalType": "string",
          "name": "from",
          "type": "string"
        },
        {
          "internalType": "string",
          "name": "to",
          "type": "string"
        }
      ],
      "name": "buySubscription",
      "outputs": [],
      "stateMutability": "payable",
      "type": "function",
      "payable": true
    },
    {
      "inputs": [
        {
          "internalType": "uint256",
          "name": "videoId",
          "type": "uint256"
        }
      ],
      "name": "buyPrivateVideo",
      "outputs": [],
      "stateMutability": "payable",
      "type": "function",
      "payable": true
    }
  ],
  "bytecode": "0x608060405260006001556000600255600060035560006004556040518060400160405280600581526020017f64666c69780000000000000000000000000000000000000000000000000000008152506005908051906020019062000065929190620000e0565b503480156200007357600080fd5b5060405162001bfd38038062001bfd8339818101604052810190620000999190620001a7565b806000806101000a81548173ffffffffffffffffffffffffffffffffffffffff021916908373ffffffffffffffffffffffffffffffffffffffff1602179055505062000286565b828054620000ee9062000207565b90600052602060002090601f0160209004810192826200011257600085556200015e565b82601f106200012d57805160ff19168380011785556200015e565b828001600101855582156200015e579182015b828111156200015d57825182559160200191906001019062000140565b5b5090506200016d919062000171565b5090565b5b808211156200018c57600081600090555060010162000172565b5090565b600081519050620001a1816200026c565b92915050565b600060208284031215620001ba57600080fd5b6000620001ca8482850162000190565b91505092915050565b6000620001e082620001e7565b9050919050565b600073ffffffffffffffffffffffffffffffffffffffff82169050919050565b600060028204905060018216806200022057607f821691505b602082108114156200023757620002366200023d565b5b50919050565b7f4e487b7100000000000000000000000000000000000000000000000000000000600052602260045260246000fd5b6200027781620001d3565b81146200028357600080fd5b50565b61196780620002966000396000f3fe6080604052600436106100a75760003560e01c80638e80e0e0116100645780638e80e0e0146101b35780639c7ab767146101f4578063a88300dd1461021f578063bc2104d214610248578063c3189c3814610273578063e6821bf51461028f576100a7565b80631755ff21146100ac5780634f81c1ff146100d7578063596539e214610102578063722cec711461014157806379d82e711461015d5780637a8d55aa14610188575b600080fd5b3480156100b857600080fd5b506100c16102d3565b6040516100ce919061144d565b60405180910390f35b3480156100e357600080fd5b506100ec6102f7565b6040516100f99190611468565b60405180910390f35b34801561010e57600080fd5b50610129600480360381019061012491906112a1565b610385565b604051610138939291906115e0565b60405180910390f35b61015b60048036038101906101569190611139565b6103cf565b005b34801561016957600080fd5b506101726106f6565b60405161017f9190611532565b60405180910390f35b34801561019457600080fd5b5061019d6106fc565b6040516101aa9190611532565b60405180910390f35b3480156101bf57600080fd5b506101da60048036038101906101d591906110f8565b610702565b6040516101eb95949392919061148a565b60405180910390f35b34801561020057600080fd5b50610209610913565b6040516102169190611532565b60405180910390f35b34801561022b57600080fd5b50610246600480360381019061024191906111d0565b610919565b005b34801561025457600080fd5b5061025d610b36565b60405161026a9190611532565b60405180910390f35b61028d600480360381019061028891906112a1565b610b3c565b005b34801561029b57600080fd5b506102b660048036038101906102b191906112a1565b610da9565b6040516102ca98979695949392919061154d565b60405180910390f35b60008054906101000a900473ffffffffffffffffffffffffffffffffffffffff1681565b60058054610304906117bb565b80601f0160208091040260200160405190810160405280929190818152602001828054610330906117bb565b801561037d5780601f106103525761010080835404028352916020019161037d565b820191906000526020600020905b81548152906001019060200180831161036057829003601f168201915b505050505081565b60086020528060005260406000206000915090508060000154908060010154908060020160009054906101000a900473ffffffffffffffffffffffffffffffffffffffff16905083565b6007836040516103df9190611421565b908152602001604051809103902060030160149054906101000a900460ff1661043d576040517f08c379a000000000000000000000000000000000000000000000000000000000815260040161043490611512565b60405180910390fd5b600073ffffffffffffffffffffffffffffffffffffffff163373ffffffffffffffffffffffffffffffffffffffff16141561047757600080fd5b6103e860016104869190611700565b3373ffffffffffffffffffffffffffffffffffffffff1631116104a857600080fd5b60008060008054906101000a900473ffffffffffffffffffffffffffffffffffffffff1673ffffffffffffffffffffffffffffffffffffffff1660016040516104f090611438565b60006040518083038185875af1925050503d806000811461052d576040519150601f19603f3d011682016040523d82523d6000602084013e610532565b606091505b509150915081610577576040517f08c379a000000000000000000000000000000000000000000000000000000000815260040161056e906114f2565b60405180910390fd5b6040518060a001604052808681526020018481526020018581526020013373ffffffffffffffffffffffffffffffffffffffff168152602001600115158152506007866040516105c79190611421565b908152602001604051809103902060008201518160000190805190602001906105f1929190610fc3565b50602082015181600101908051906020019061060e929190610fc3565b50604082015181600201908051906020019061062b929190610fc3565b5060608201518160030160006101000a81548173ffffffffffffffffffffffffffffffffffffffff021916908373ffffffffffffffffffffffffffffffffffffffff16021790555060808201518160030160146101000a81548160ff02191690831515021790555090505060018060008282546106a891906116aa565b925050819055507f2c72bde69bd4c6e20d152c68cbbeb1a8178c6a9eaba0d906fb0f9f4feed001fe8584863360016040516106e795949392919061148a565b60405180910390a15050505050565b60025481565b60045481565b60078180516020810182018051848252602083016020850120818352809550505050505060009150905080600001805461073b906117bb565b80601f0160208091040260200160405190810160405280929190818152602001828054610767906117bb565b80156107b45780601f10610789576101008083540402835291602001916107b4565b820191906000526020600020905b81548152906001019060200180831161079757829003601f168201915b5050505050908060010180546107c9906117bb565b80601f01602080910402602001604051908101604052809291908181526020018280546107f5906117bb565b80156108425780601f1061081757610100808354040283529160200191610842565b820191906000526020600020905b81548152906001019060200180831161082557829003601f168201915b505050505090806002018054610857906117bb565b80601f0160208091040260200160405190810160405280929190818152602001828054610883906117bb565b80156108d05780601f106108a5576101008083540402835291602001916108d0565b820191906000526020600020905b8154815290600101906020018083116108b357829003601f168201915b5050505050908060030160009054906101000a900473ffffffffffffffffffffffffffffffffffffffff16908060030160149054906101000a900460ff16905085565b60035481565b600086511161092757600080fd5b600085511161093557600080fd5b600073ffffffffffffffffffffffffffffffffffffffff163373ffffffffffffffffffffffffffffffffffffffff16141561096f57600080fd5b60026000815480929190610982906117ed565b91905055506040518061010001604052806002548152602001878152602001868152602001858152602001841515815260200183815260200182151581526020013373ffffffffffffffffffffffffffffffffffffffff16815250600660006002548152602001908152602001600020600082015181600001556020820151816001019080519060200190610a18929190610fc3565b506040820151816002019080519060200190610a35929190610fc3565b506060820151816003019080519060200190610a52929190610fc3565b5060808201518160040160006101000a81548160ff02191690831515021790555060a0820151816005015560c08201518160060160006101000a81548160ff02191690831515021790555060e08201518160060160016101000a81548173ffffffffffffffffffffffffffffffffffffffff021916908373ffffffffffffffffffffffffffffffffffffffff1602179055509050507f01c14fcba3775265d26f634fdce46346e04d5eec34950d277b93f10f8d6ea85560025487878787878733604051610b2698979695949392919061154d565b60405180910390a1505050505050565b60015481565b600073ffffffffffffffffffffffffffffffffffffffff163373ffffffffffffffffffffffffffffffffffffffff161415610b7657600080fd5b60066000828152602001908152602001600020600501543373ffffffffffffffffffffffffffffffffffffffff163111610baf57600080fd5b6000806006600084815260200190815260200160002060060160019054906101000a900473ffffffffffffffffffffffffffffffffffffffff1673ffffffffffffffffffffffffffffffffffffffff166006600085815260200190815260200160002060050154604051610c2290611438565b60006040518083038185875af1925050503d8060008114610c5f576040519150601f19603f3d011682016040523d82523d6000602084013e610c64565b606091505b509150915081610ca9576040517f08c379a0000000000000000000000000000000000000000000000000000000008152600401610ca0906114f2565b60405180910390fd5b60046000815480929190610cbc906117ed565b9190505550604051806060016040528060045481526020018481526020013373ffffffffffffffffffffffffffffffffffffffff16815250600860006004548152602001908152602001600020600082015181600001556020820151816001015560408201518160020160006101000a81548173ffffffffffffffffffffffffffffffffffffffff021916908373ffffffffffffffffffffffffffffffffffffffff1602179055509050507fffcb917edc283fd8a3f98c9b28b2bd1147090776b86775315be1c5959dbed3ff6004548433604051610d9c939291906115e0565b60405180910390a1505050565b6006602052806000526040600020600091509050806000015490806001018054610dd2906117bb565b80601f0160208091040260200160405190810160405280929190818152602001828054610dfe906117bb565b8015610e4b5780601f10610e2057610100808354040283529160200191610e4b565b820191906000526020600020905b815481529060010190602001808311610e2e57829003601f168201915b505050505090806002018054610e60906117bb565b80601f0160208091040260200160405190810160405280929190818152602001828054610e8c906117bb565b8015610ed95780601f10610eae57610100808354040283529160200191610ed9565b820191906000526020600020905b815481529060010190602001808311610ebc57829003601f168201915b505050505090806003018054610eee906117bb565b80601f0160208091040260200160405190810160405280929190818152602001828054610f1a906117bb565b8015610f675780601f10610f3c57610100808354040283529160200191610f67565b820191906000526020600020905b815481529060010190602001808311610f4a57829003601f168201915b5050505050908060040160009054906101000a900460ff16908060050154908060060160009054906101000a900460ff16908060060160019054906101000a900473ffffffffffffffffffffffffffffffffffffffff16905088565b828054610fcf906117bb565b90600052602060002090601f016020900481019282610ff15760008555611038565b82601f1061100a57805160ff1916838001178555611038565b82800160010185558215611038579182015b8281111561103757825182559160200191906001019061101c565b5b5090506110459190611049565b5090565b5b8082111561106257600081600090555060010161104a565b5090565b600061107961107484611648565b611617565b90508281526020810184848401111561109157600080fd5b61109c848285611779565b509392505050565b6000813590506110b381611903565b92915050565b600082601f8301126110ca57600080fd5b81356110da848260208601611066565b91505092915050565b6000813590506110f28161191a565b92915050565b60006020828403121561110a57600080fd5b600082013567ffffffffffffffff81111561112457600080fd5b611130848285016110b9565b91505092915050565b60008060006060848603121561114e57600080fd5b600084013567ffffffffffffffff81111561116857600080fd5b611174868287016110b9565b935050602084013567ffffffffffffffff81111561119157600080fd5b61119d868287016110b9565b925050604084013567ffffffffffffffff8111156111ba57600080fd5b6111c6868287016110b9565b9150509250925092565b60008060008060008060c087890312156111e957600080fd5b600087013567ffffffffffffffff81111561120357600080fd5b61120f89828a016110b9565b965050602087013567ffffffffffffffff81111561122c57600080fd5b61123889828a016110b9565b955050604087013567ffffffffffffffff81111561125557600080fd5b61126189828a016110b9565b945050606061127289828a016110a4565b935050608061128389828a016110e3565b92505060a061129489828a016110a4565b9150509295509295509295565b6000602082840312156112b357600080fd5b60006112c1848285016110e3565b91505092915050565b6112d381611731565b82525050565b6112e281611743565b82525050565b60006112f382611678565b6112fd818561168e565b935061130d818560208601611788565b611316816118f2565b840191505092915050565b600061132c82611678565b611336818561169f565b9350611346818560208601611788565b80840191505092915050565b600061135f60148361168e565b91507f4661696c656420746f2073656e642045746865720000000000000000000000006000830152602082019050919050565b600061139f60338361168e565b91507f4f6f70732073797374656d206572726f722121204475706c696361746520737560008301527f62736372697074696f6e20696420666f756e64000000000000000000000000006020830152604082019050919050565b6000611405600083611683565b9150600082019050919050565b61141b8161176f565b82525050565b600061142d8284611321565b915081905092915050565b6000611443826113f8565b9150819050919050565b600060208201905061146260008301846112ca565b92915050565b6000602082019050818103600083015261148281846112e8565b905092915050565b600060a08201905081810360008301526114a481886112e8565b905081810360208301526114b881876112e8565b905081810360408301526114cc81866112e8565b90506114db60608301856112ca565b6114e860808301846112d9565b9695505050505050565b6000602082019050818103600083015261150b81611352565b9050919050565b6000602082019050818103600083015261152b81611392565b9050919050565b60006020820190506115476000830184611412565b92915050565b600061010082019050611563600083018b611412565b8181036020830152611575818a6112e8565b9050818103604083015261158981896112e8565b9050818103606083015261159d81886112e8565b90506115ac60808301876112d9565b6115b960a0830186611412565b6115c660c08301856112d9565b6115d360e08301846112ca565b9998505050505050505050565b60006060820190506115f56000830186611412565b6116026020830185611412565b61160f60408301846112ca565b949350505050565b6000604051905081810181811067ffffffffffffffff8211171561163e5761163d6118c3565b5b8060405250919050565b600067ffffffffffffffff821115611663576116626118c3565b5b601f19601f8301169050602081019050919050565b600081519050919050565b600081905092915050565b600082825260208201905092915050565b600081905092915050565b60006116b58261176f565b91506116c08361176f565b9250827fffffffffffffffffffffffffffffffffffffffffffffffffffffffffffffffff038211156116f5576116f4611836565b5b828201905092915050565b600061170b8261176f565b91506117168361176f565b92508261172657611725611865565b5b828204905092915050565b600061173c8261174f565b9050919050565b60008115159050919050565b600073ffffffffffffffffffffffffffffffffffffffff82169050919050565b6000819050919050565b82818337600083830152505050565b60005b838110156117a657808201518184015260208101905061178b565b838111156117b5576000848401525b50505050565b600060028204905060018216806117d357607f821691505b602082108114156117e7576117e6611894565b5b50919050565b60006117f88261176f565b91507fffffffffffffffffffffffffffffffffffffffffffffffffffffffffffffffff82141561182b5761182a611836565b5b600182019050919050565b7f4e487b7100000000000000000000000000000000000000000000000000000000600052601160045260246000fd5b7f4e487b7100000000000000000000000000000000000000000000000000000000600052601260045260246000fd5b7f4e487b7100000000000000000000000000000000000000000000000000000000600052602260045260246000fd5b7f4e487b7100000000000000000000000000000000000000000000000000000000600052604160045260246000fd5b6000601f19601f8301169050919050565b61190c81611743565b811461191757600080fd5b50565b6119238161176f565b811461192e57600080fd5b5056fea2646970667358221220819fb07a8d8a1821eb206701eb0ae9083684d2069701da7025383ce5e97a4cba64736f6c63430008000033",
  "immutableReferences": {},
  "source": "pragma solidity ^0.8.0;\n\ncontract DFlix {\n\n    uint constant private SUBSCRIPTION_AMOUNT = 1;   // JUST FOR TESTING KEEPING AMOUNT LOW\n    address public poolAddress;\n    uint public poolFunds = 0;\n    uint public numVideo = 0; \n    uint public numSubscribers = 0;\n    uint public numPrivateVideo = 0;\n    string public dappName = \"dflix\";\n    mapping(uint => VideoMetadata) public videos;\n    mapping(string => SubscriptionMetadata) public subscription;\n    mapping(uint => PrivateVideoMetadata) public privateVideosMapping;\n\n    struct VideoMetadata {\n        uint id;                // index of video\n        string _hash;            // IPFS hash of video to be stored\n        string title;           // Title of the video\n        string description;     // Description of the video\n        bool isPrivate;         // Private video (allowing only set of users to view this)\n        uint fees;              // If private how much is required to view the video (movies?)\n        bool isSubscription;    // included in subscription (FUTURE?)\n        address author;         // Creator's address\n    }\n\n    struct SubscriptionMetadata {\n        string id;                // subscription id\n        string endDate;          // end date\n        string startDate;         // starting date\n        address author;         // person buying subscription\n        bool subscribed;        // to check if user has subscribed\n    }\n\n    struct PrivateVideoMetadata {\n        uint id;                      // index\n        uint videoId;                // private video id\n        address author;              // address of the author\n    }\n\n    event VideoUploadEvent(\n        uint id,\n        string _hash,\n        string title,\n        string description,\n        bool isPrivate,\n        uint fees,\n        bool isSubscription,\n        address author\n    );\n\n    event SubscriptionEvent (\n        string id,              \n        string endDate,        \n        string startDate,        \n        address author,      \n        bool subscribed       \n    );\n\n    event PrivateVideoEvent (\n        uint id,                \n        uint videoId,              \n        address author\n    );\n\n    constructor(address _poolAddress) public {\n        poolAddress = _poolAddress;\n    }\n\n    function uploadVideo(string memory _videoHash, string memory _title, \n                            string memory _description, bool _isPrivate, \n                            uint _fees, bool _isSubscription) public {\n        \n        require(bytes(_videoHash).length > 0);  // validate if video hash is not empty\n        require(bytes(_title).length > 0);      // validate if video title exists\n        require(msg.sender != address(0));      // validate if creator address exists\n\n        numVideo ++;        // Increment the video count (should this be included in reintrancy locks)?\n\n        videos[numVideo] = VideoMetadata(numVideo, _videoHash, _title, _description, _isPrivate, _fees, _isSubscription, msg.sender);   // Adding video to contract\n        emit VideoUploadEvent(numVideo, _videoHash, _title, _description, _isPrivate, _fees, _isSubscription, msg.sender);  // Trigger upload video event\n\n    }\n\n    function buySubscription(string memory subscriptionId, string memory from, string memory to) public payable {\n        require(subscription[subscriptionId].subscribed, \"Oops system error!! Duplicate subscription id found\");\n        require(msg.sender != address(0));      // validate if creator address exists\n        require((msg.sender.balance) > (uint(SUBSCRIPTION_AMOUNT)/1000));  // validate is user has sufficient balance\n        \n        (bool sent, bytes memory data) = poolAddress.call{value: uint(SUBSCRIPTION_AMOUNT)}(\"\");\n        require(sent, \"Failed to send Ether\");\n        subscription[subscriptionId] = SubscriptionMetadata(subscriptionId, to, from, msg.sender, true);\n        poolFunds += uint(SUBSCRIPTION_AMOUNT);\n        emit SubscriptionEvent(subscriptionId, to, from, msg.sender, true);\n    }\n\n    function buyPrivateVideo(uint videoId) public payable {\n        require(msg.sender != address(0));      // validate if creator address exists\n        require(msg.sender.balance > videos[videoId].fees);  // validate is user has sufficient balance\n        \n        (bool sent, bytes memory data) = videos[videoId].author.call{value: videos[videoId].fees}(\"\");\n        require(sent, \"Failed to send Ether\");\n        numPrivateVideo ++;\n        privateVideosMapping[numPrivateVideo] = PrivateVideoMetadata(numPrivateVideo, videoId, msg.sender);\n        emit PrivateVideoEvent(numPrivateVideo, videoId, msg.sender);\n    }\n}",
  "sourcePath": "/Users/sourav/workspace/uwm/CS839_Blockchain/xflicks/contracts/dflix.sol",
  "compiler": {
    "name": "solc",
    "version": "0.8.0+commit.c7dfd78e.Emscripten.clang"
  },
  "schemaVersion": "3.4.13",
  "updatedAt": "2023-04-30T02:34:29.425Z",
  "networkType": "ethereum",
  "devdoc": {
    "kind": "dev",
    "methods": {},
    "version": 1
  },
  "userdoc": {
    "kind": "user",
    "methods": {},
    "version": 1
  }
}