{
  "contractName": "DFlix",
  "abi": [
    {
      "inputs": [
        {
          "internalType": "address",
          "name": "_poolAddress",
          "type": "address"
        }
      ],
      "stateMutability": "nonpayable",
      "type": "constructor"
    },
    {
      "anonymous": false,
      "inputs": [
        {
          "indexed": false,
          "internalType": "uint256",
          "name": "id",
          "type": "uint256"
        },
        {
          "indexed": false,
          "internalType": "uint256",
          "name": "videoId",
          "type": "uint256"
        },
        {
          "indexed": false,
          "internalType": "address",
          "name": "author",
          "type": "address"
        }
      ],
      "name": "PrivateVideoEvent",
      "type": "event"
    },
    {
      "anonymous": false,
      "inputs": [
        {
          "indexed": false,
          "internalType": "string",
          "name": "id",
          "type": "string"
        },
        {
          "indexed": false,
          "internalType": "string",
          "name": "endDate",
          "type": "string"
        },
        {
          "indexed": false,
          "internalType": "string",
          "name": "startDate",
          "type": "string"
        },
        {
          "indexed": false,
          "internalType": "address",
          "name": "author",
          "type": "address"
        },
        {
          "indexed": false,
          "internalType": "bool",
          "name": "subscribed",
          "type": "bool"
        }
      ],
      "name": "SubscriptionEvent",
      "type": "event"
    },
    {
      "anonymous": false,
      "inputs": [
        {
          "indexed": false,
          "internalType": "uint256",
          "name": "id",
          "type": "uint256"
        },
        {
          "indexed": false,
          "internalType": "string",
          "name": "_hash",
          "type": "string"
        },
        {
          "indexed": false,
          "internalType": "string",
          "name": "thumbnalHash",
          "type": "string"
        },
        {
          "indexed": false,
          "internalType": "string",
          "name": "title",
          "type": "string"
        },
        {
          "indexed": false,
          "internalType": "string",
          "name": "description",
          "type": "string"
        },
        {
          "indexed": false,
          "internalType": "bool",
          "name": "isPrivate",
          "type": "bool"
        },
        {
          "indexed": false,
          "internalType": "uint256",
          "name": "fees",
          "type": "uint256"
        },
        {
          "indexed": false,
          "internalType": "bool",
          "name": "isSubscription",
          "type": "bool"
        },
        {
          "indexed": false,
          "internalType": "address",
          "name": "author",
          "type": "address"
        }
      ],
      "name": "VideoUploadEvent",
      "type": "event"
    },
    {
      "inputs": [],
      "name": "dappName",
      "outputs": [
        {
          "internalType": "string",
          "name": "",
          "type": "string"
        }
      ],
      "stateMutability": "view",
      "type": "function",
      "constant": true
    },
    {
      "inputs": [],
      "name": "numPrivateVideo",
      "outputs": [
        {
          "internalType": "uint256",
          "name": "",
          "type": "uint256"
        }
      ],
      "stateMutability": "view",
      "type": "function",
      "constant": true
    },
    {
      "inputs": [],
      "name": "numSubscribers",
      "outputs": [
        {
          "internalType": "uint256",
          "name": "",
          "type": "uint256"
        }
      ],
      "stateMutability": "view",
      "type": "function",
      "constant": true
    },
    {
      "inputs": [],
      "name": "numVideo",
      "outputs": [
        {
          "internalType": "uint256",
          "name": "",
          "type": "uint256"
        }
      ],
      "stateMutability": "view",
      "type": "function",
      "constant": true
    },
    {
      "inputs": [],
      "name": "poolAddress",
      "outputs": [
        {
          "internalType": "address",
          "name": "",
          "type": "address"
        }
      ],
      "stateMutability": "view",
      "type": "function",
      "constant": true
    },
    {
      "inputs": [],
      "name": "poolFunds",
      "outputs": [
        {
          "internalType": "uint256",
          "name": "",
          "type": "uint256"
        }
      ],
      "stateMutability": "view",
      "type": "function",
      "constant": true
    },
    {
      "inputs": [
        {
          "internalType": "uint256",
          "name": "",
          "type": "uint256"
        }
      ],
      "name": "privateVideosMapping",
      "outputs": [
        {
          "internalType": "uint256",
          "name": "id",
          "type": "uint256"
        },
        {
          "internalType": "uint256",
          "name": "videoId",
          "type": "uint256"
        },
        {
          "internalType": "address",
          "name": "author",
          "type": "address"
        }
      ],
      "stateMutability": "view",
      "type": "function",
      "constant": true
    },
    {
      "inputs": [
        {
          "internalType": "string",
          "name": "",
          "type": "string"
        }
      ],
      "name": "subscription",
      "outputs": [
        {
          "internalType": "string",
          "name": "id",
          "type": "string"
        },
        {
          "internalType": "string",
          "name": "endDate",
          "type": "string"
        },
        {
          "internalType": "string",
          "name": "startDate",
          "type": "string"
        },
        {
          "internalType": "address",
          "name": "author",
          "type": "address"
        },
        {
          "internalType": "bool",
          "name": "subscribed",
          "type": "bool"
        }
      ],
      "stateMutability": "view",
      "type": "function",
      "constant": true
    },
    {
      "inputs": [
        {
          "internalType": "uint256",
          "name": "",
          "type": "uint256"
        }
      ],
      "name": "videos",
      "outputs": [
        {
          "internalType": "uint256",
          "name": "id",
          "type": "uint256"
        },
        {
          "internalType": "string",
          "name": "_hash",
          "type": "string"
        },
        {
          "internalType": "string",
          "name": "thumbnalHash",
          "type": "string"
        },
        {
          "internalType": "string",
          "name": "title",
          "type": "string"
        },
        {
          "internalType": "string",
          "name": "description",
          "type": "string"
        },
        {
          "internalType": "bool",
          "name": "isPrivate",
          "type": "bool"
        },
        {
          "internalType": "uint256",
          "name": "fees",
          "type": "uint256"
        },
        {
          "internalType": "bool",
          "name": "isSubscription",
          "type": "bool"
        },
        {
          "internalType": "address",
          "name": "author",
          "type": "address"
        }
      ],
      "stateMutability": "view",
      "type": "function",
      "constant": true
    },
    {
      "inputs": [
        {
          "internalType": "string",
          "name": "_videoHash",
          "type": "string"
        },
        {
          "internalType": "string",
          "name": "_title",
          "type": "string"
        },
        {
          "internalType": "string",
          "name": "_thumbnailHash",
          "type": "string"
        },
        {
          "internalType": "string",
          "name": "_description",
          "type": "string"
        },
        {
          "internalType": "bool",
          "name": "_isPrivate",
          "type": "bool"
        },
        {
          "internalType": "uint256",
          "name": "_fees",
          "type": "uint256"
        },
        {
          "internalType": "bool",
          "name": "_isSubscription",
          "type": "bool"
        }
      ],
      "name": "uploadVideo",
      "outputs": [],
      "stateMutability": "nonpayable",
      "type": "function"
    },
    {
      "inputs": [
        {
          "internalType": "string",
          "name": "subscriptionId",
          "type": "string"
        },
        {
          "internalType": "string",
          "name": "from",
          "type": "string"
        },
        {
          "internalType": "string",
          "name": "to",
          "type": "string"
        }
      ],
      "name": "buySubscription",
      "outputs": [],
      "stateMutability": "payable",
      "type": "function",
      "payable": true
    },
    {
      "inputs": [
        {
          "internalType": "uint256",
          "name": "videoId",
          "type": "uint256"
        }
      ],
      "name": "buyPrivateVideo",
      "outputs": [],
      "stateMutability": "payable",
      "type": "function",
      "payable": true
    }
  ],
  "bytecode": "0x608060405260006001556000600255600060035560006004556040518060400160405280600581526020017f64666c69780000000000000000000000000000000000000000000000000000008152506005908051906020019062000065929190620000e0565b503480156200007357600080fd5b5060405162001c1038038062001c108339818101604052810190620000999190620001a7565b806000806101000a81548173ffffffffffffffffffffffffffffffffffffffff021916908373ffffffffffffffffffffffffffffffffffffffff1602179055505062000286565b828054620000ee9062000207565b90600052602060002090601f0160209004810192826200011257600085556200015e565b82601f106200012d57805160ff19168380011785556200015e565b828001600101855582156200015e579182015b828111156200015d57825182559160200191906001019062000140565b5b5090506200016d919062000171565b5090565b5b808211156200018c57600081600090555060010162000172565b5090565b600081519050620001a1816200026c565b92915050565b600060208284031215620001ba57600080fd5b6000620001ca8482850162000190565b91505092915050565b6000620001e082620001e7565b9050919050565b600073ffffffffffffffffffffffffffffffffffffffff82169050919050565b600060028204905060018216806200022057607f821691505b602082108114156200023757620002366200023d565b5b50919050565b7f4e487b7100000000000000000000000000000000000000000000000000000000600052602260045260246000fd5b6200027781620001d3565b81146200028357600080fd5b50565b61197a80620002966000396000f3fe6080604052600436106100a75760003560e01c80637a8d55aa116100645780637a8d55aa146101b15780638e80e0e0146101dc5780639c7ab7671461021d578063bc2104d214610248578063c3189c3814610273578063e6821bf51461028f576100a7565b80631755ff21146100ac5780633d2a15a0146100d75780634f81c1ff14610100578063596539e21461012b578063722cec711461016a57806379d82e7114610186575b600080fd5b3480156100b857600080fd5b506100c16102d4565b6040516100ce919061146a565b60405180910390f35b3480156100e357600080fd5b506100fe60048036038101906100f99190611226565b6102f8565b005b34801561010c57600080fd5b5061011561054a565b6040516101229190611485565b60405180910390f35b34801561013757600080fd5b50610152600480360381019061014d9190611324565b6105d8565b604051610161939291906115f3565b60405180910390f35b610184600480360381019061017f919061118f565b610622565b005b34801561019257600080fd5b5061019b6108db565b6040516101a8919061152f565b60405180910390f35b3480156101bd57600080fd5b506101c66108e1565b6040516101d3919061152f565b60405180910390f35b3480156101e857600080fd5b5061020360048036038101906101fe919061114e565b6108e7565b6040516102149594939291906114a7565b60405180910390f35b34801561022957600080fd5b50610232610af8565b60405161023f919061152f565b60405180910390f35b34801561025457600080fd5b5061025d610afe565b60405161026a919061152f565b60405180910390f35b61028d60048036038101906102889190611324565b610b04565b005b34801561029b57600080fd5b506102b660048036038101906102b19190611324565b610d71565b6040516102cb9998979695949392919061154a565b60405180910390f35b60008054906101000a900473ffffffffffffffffffffffffffffffffffffffff1681565b600087511161030657600080fd5b600085511161031457600080fd5b600086511161032257600080fd5b600073ffffffffffffffffffffffffffffffffffffffff163373ffffffffffffffffffffffffffffffffffffffff16141561035c57600080fd5b6002600081548092919061036f90611800565b91905055506040518061012001604052806002548152602001888152602001868152602001878152602001858152602001841515815260200183815260200182151581526020013373ffffffffffffffffffffffffffffffffffffffff1681525060066000600254815260200190815260200160002060008201518160000155602082015181600101908051906020019061040b929190611019565b506040820151816002019080519060200190610428929190611019565b506060820151816003019080519060200190610445929190611019565b506080820151816004019080519060200190610462929190611019565b5060a08201518160050160006101000a81548160ff02191690831515021790555060c0820151816006015560e08201518160070160006101000a81548160ff0219169083151502179055506101008201518160070160016101000a81548173ffffffffffffffffffffffffffffffffffffffff021916908373ffffffffffffffffffffffffffffffffffffffff1602179055509050507f17b6005cab0d8a55ff705595bce375e4433f04a173bf295f792f0451700dcc4160025488878988888888336040516105399998979695949392919061154a565b60405180910390a150505050505050565b60058054610557906117ce565b80601f0160208091040260200160405190810160405280929190818152602001828054610583906117ce565b80156105d05780601f106105a5576101008083540402835291602001916105d0565b820191906000526020600020905b8154815290600101906020018083116105b357829003601f168201915b505050505081565b60086020528060005260406000206000915090508060000154908060010154908060020160009054906101000a900473ffffffffffffffffffffffffffffffffffffffff16905083565b600073ffffffffffffffffffffffffffffffffffffffff163373ffffffffffffffffffffffffffffffffffffffff16141561065c57600080fd5b6103e8600161066b9190611713565b3373ffffffffffffffffffffffffffffffffffffffff16311161068d57600080fd5b60008060008054906101000a900473ffffffffffffffffffffffffffffffffffffffff1673ffffffffffffffffffffffffffffffffffffffff1660016040516106d590611455565b60006040518083038185875af1925050503d8060008114610712576040519150601f19603f3d011682016040523d82523d6000602084013e610717565b606091505b50915091508161075c576040517f08c379a00000000000000000000000000000000000000000000000000000000081526004016107539061150f565b60405180910390fd5b6040518060a001604052808681526020018481526020018581526020013373ffffffffffffffffffffffffffffffffffffffff168152602001600115158152506007866040516107ac919061143e565b908152602001604051809103902060008201518160000190805190602001906107d6929190611019565b5060208201518160010190805190602001906107f3929190611019565b506040820151816002019080519060200190610810929190611019565b5060608201518160030160006101000a81548173ffffffffffffffffffffffffffffffffffffffff021916908373ffffffffffffffffffffffffffffffffffffffff16021790555060808201518160030160146101000a81548160ff021916908315150217905550905050600180600082825461088d91906116bd565b925050819055507f2c72bde69bd4c6e20d152c68cbbeb1a8178c6a9eaba0d906fb0f9f4feed001fe8584863360016040516108cc9594939291906114a7565b60405180910390a15050505050565b60025481565b60045481565b600781805160208101820180518482526020830160208501208183528095505050505050600091509050806000018054610920906117ce565b80601f016020809104026020016040519081016040528092919081815260200182805461094c906117ce565b80156109995780601f1061096e57610100808354040283529160200191610999565b820191906000526020600020905b81548152906001019060200180831161097c57829003601f168201915b5050505050908060010180546109ae906117ce565b80601f01602080910402602001604051908101604052809291908181526020018280546109da906117ce565b8015610a275780601f106109fc57610100808354040283529160200191610a27565b820191906000526020600020905b815481529060010190602001808311610a0a57829003601f168201915b505050505090806002018054610a3c906117ce565b80601f0160208091040260200160405190810160405280929190818152602001828054610a68906117ce565b8015610ab55780601f10610a8a57610100808354040283529160200191610ab5565b820191906000526020600020905b815481529060010190602001808311610a9857829003601f168201915b5050505050908060030160009054906101000a900473ffffffffffffffffffffffffffffffffffffffff16908060030160149054906101000a900460ff16905085565b60035481565b60015481565b600073ffffffffffffffffffffffffffffffffffffffff163373ffffffffffffffffffffffffffffffffffffffff161415610b3e57600080fd5b60066000828152602001908152602001600020600601543373ffffffffffffffffffffffffffffffffffffffff163111610b7757600080fd5b6000806006600084815260200190815260200160002060070160019054906101000a900473ffffffffffffffffffffffffffffffffffffffff1673ffffffffffffffffffffffffffffffffffffffff166006600085815260200190815260200160002060060154604051610bea90611455565b60006040518083038185875af1925050503d8060008114610c27576040519150601f19603f3d011682016040523d82523d6000602084013e610c2c565b606091505b509150915081610c71576040517f08c379a0000000000000000000000000000000000000000000000000000000008152600401610c689061150f565b60405180910390fd5b60046000815480929190610c8490611800565b9190505550604051806060016040528060045481526020018481526020013373ffffffffffffffffffffffffffffffffffffffff16815250600860006004548152602001908152602001600020600082015181600001556020820151816001015560408201518160020160006101000a81548173ffffffffffffffffffffffffffffffffffffffff021916908373ffffffffffffffffffffffffffffffffffffffff1602179055509050507fffcb917edc283fd8a3f98c9b28b2bd1147090776b86775315be1c5959dbed3ff6004548433604051610d64939291906115f3565b60405180910390a1505050565b6006602052806000526040600020600091509050806000015490806001018054610d9a906117ce565b80601f0160208091040260200160405190810160405280929190818152602001828054610dc6906117ce565b8015610e135780601f10610de857610100808354040283529160200191610e13565b820191906000526020600020905b815481529060010190602001808311610df657829003601f168201915b505050505090806002018054610e28906117ce565b80601f0160208091040260200160405190810160405280929190818152602001828054610e54906117ce565b8015610ea15780601f10610e7657610100808354040283529160200191610ea1565b820191906000526020600020905b815481529060010190602001808311610e8457829003601f168201915b505050505090806003018054610eb6906117ce565b80601f0160208091040260200160405190810160405280929190818152602001828054610ee2906117ce565b8015610f2f5780601f10610f0457610100808354040283529160200191610f2f565b820191906000526020600020905b815481529060010190602001808311610f1257829003601f168201915b505050505090806004018054610f44906117ce565b80601f0160208091040260200160405190810160405280929190818152602001828054610f70906117ce565b8015610fbd5780601f10610f9257610100808354040283529160200191610fbd565b820191906000526020600020905b815481529060010190602001808311610fa057829003601f168201915b5050505050908060050160009054906101000a900460ff16908060060154908060070160009054906101000a900460ff16908060070160019054906101000a900473ffffffffffffffffffffffffffffffffffffffff16905089565b828054611025906117ce565b90600052602060002090601f016020900481019282611047576000855561108e565b82601f1061106057805160ff191683800117855561108e565b8280016001018555821561108e579182015b8281111561108d578251825591602001919060010190611072565b5b50905061109b919061109f565b5090565b5b808211156110b85760008160009055506001016110a0565b5090565b60006110cf6110ca8461165b565b61162a565b9050828152602081018484840111156110e757600080fd5b6110f284828561178c565b509392505050565b60008135905061110981611916565b92915050565b600082601f83011261112057600080fd5b81356111308482602086016110bc565b91505092915050565b6000813590506111488161192d565b92915050565b60006020828403121561116057600080fd5b600082013567ffffffffffffffff81111561117a57600080fd5b6111868482850161110f565b91505092915050565b6000806000606084860312156111a457600080fd5b600084013567ffffffffffffffff8111156111be57600080fd5b6111ca8682870161110f565b935050602084013567ffffffffffffffff8111156111e757600080fd5b6111f38682870161110f565b925050604084013567ffffffffffffffff81111561121057600080fd5b61121c8682870161110f565b9150509250925092565b600080600080600080600060e0888a03121561124157600080fd5b600088013567ffffffffffffffff81111561125b57600080fd5b6112678a828b0161110f565b975050602088013567ffffffffffffffff81111561128457600080fd5b6112908a828b0161110f565b965050604088013567ffffffffffffffff8111156112ad57600080fd5b6112b98a828b0161110f565b955050606088013567ffffffffffffffff8111156112d657600080fd5b6112e28a828b0161110f565b94505060806112f38a828b016110fa565b93505060a06113048a828b01611139565b92505060c06113158a828b016110fa565b91505092959891949750929550565b60006020828403121561133657600080fd5b600061134484828501611139565b91505092915050565b61135681611744565b82525050565b61136581611756565b82525050565b60006113768261168b565b61138081856116a1565b935061139081856020860161179b565b61139981611905565b840191505092915050565b60006113af8261168b565b6113b981856116b2565b93506113c981856020860161179b565b80840191505092915050565b60006113e26014836116a1565b91507f4661696c656420746f2073656e642045746865720000000000000000000000006000830152602082019050919050565b6000611422600083611696565b9150600082019050919050565b61143881611782565b82525050565b600061144a82846113a4565b915081905092915050565b600061146082611415565b9150819050919050565b600060208201905061147f600083018461134d565b92915050565b6000602082019050818103600083015261149f818461136b565b905092915050565b600060a08201905081810360008301526114c1818861136b565b905081810360208301526114d5818761136b565b905081810360408301526114e9818661136b565b90506114f8606083018561134d565b611505608083018461135c565b9695505050505050565b60006020820190508181036000830152611528816113d5565b9050919050565b6000602082019050611544600083018461142f565b92915050565b600061012082019050611560600083018c61142f565b8181036020830152611572818b61136b565b90508181036040830152611586818a61136b565b9050818103606083015261159a818961136b565b905081810360808301526115ae818861136b565b90506115bd60a083018761135c565b6115ca60c083018661142f565b6115d760e083018561135c565b6115e561010083018461134d565b9a9950505050505050505050565b6000606082019050611608600083018661142f565b611615602083018561142f565b611622604083018461134d565b949350505050565b6000604051905081810181811067ffffffffffffffff82111715611651576116506118d6565b5b8060405250919050565b600067ffffffffffffffff821115611676576116756118d6565b5b601f19601f8301169050602081019050919050565b600081519050919050565b600081905092915050565b600082825260208201905092915050565b600081905092915050565b60006116c882611782565b91506116d383611782565b9250827fffffffffffffffffffffffffffffffffffffffffffffffffffffffffffffffff0382111561170857611707611849565b5b828201905092915050565b600061171e82611782565b915061172983611782565b92508261173957611738611878565b5b828204905092915050565b600061174f82611762565b9050919050565b60008115159050919050565b600073ffffffffffffffffffffffffffffffffffffffff82169050919050565b6000819050919050565b82818337600083830152505050565b60005b838110156117b957808201518184015260208101905061179e565b838111156117c8576000848401525b50505050565b600060028204905060018216806117e657607f821691505b602082108114156117fa576117f96118a7565b5b50919050565b600061180b82611782565b91507fffffffffffffffffffffffffffffffffffffffffffffffffffffffffffffffff82141561183e5761183d611849565b5b600182019050919050565b7f4e487b7100000000000000000000000000000000000000000000000000000000600052601160045260246000fd5b7f4e487b7100000000000000000000000000000000000000000000000000000000600052601260045260246000fd5b7f4e487b7100000000000000000000000000000000000000000000000000000000600052602260045260246000fd5b7f4e487b7100000000000000000000000000000000000000000000000000000000600052604160045260246000fd5b6000601f19601f8301169050919050565b61191f81611756565b811461192a57600080fd5b50565b61193681611782565b811461194157600080fd5b5056fea264697066735822122014fb0cf7cda0edf1e114308c164579005651c247bfd2ecd0a8c09d79c11b4eb864736f6c63430008000033",
  "immutableReferences": {},
  "source": "pragma solidity ^0.8.0;\n\ncontract DFlix {\n\n    uint constant private SUBSCRIPTION_AMOUNT = 1;   // JUST FOR TESTING KEEPING AMOUNT LOW\n    address public poolAddress;\n    uint public poolFunds = 0;\n    uint public numVideo = 0; \n    uint public numSubscribers = 0;\n    uint public numPrivateVideo = 0;\n    string public dappName = \"dflix\";\n    mapping(uint => VideoMetadata) public videos;\n    mapping(string => SubscriptionMetadata) public subscription;\n    mapping(uint => PrivateVideoMetadata) public privateVideosMapping;\n\n    struct VideoMetadata {\n        uint id;                // index of video\n        string _hash;            // IPFS hash of video to be stored\n        string thumbnalHash;    // Thumbnail hash\n        string title;           // Title of the video\n        string description;     // Description of the video\n        bool isPrivate;         // Private video (allowing only set of users to view this)\n        uint fees;              // If private how much is required to view the video (movies?)\n        bool isSubscription;    // included in subscription (FUTURE?)\n        address author;         // Creator's address\n    }\n\n    struct SubscriptionMetadata {\n        string id;                // subscription id\n        string endDate;          // end date\n        string startDate;         // starting date\n        address author;         // person buying subscription\n        bool subscribed;        // to check if user has subscribed\n    }\n\n    struct PrivateVideoMetadata {\n        uint id;                      // index\n        uint videoId;                // private video id\n        address author;              // address of the author\n    }\n\n    event VideoUploadEvent(\n        uint id,\n        string _hash,\n        string thumbnalHash,\n        string title,\n        string description,\n        bool isPrivate,\n        uint fees,\n        bool isSubscription,\n        address author\n    );\n\n    event SubscriptionEvent (\n        string id,              \n        string endDate,        \n        string startDate,        \n        address author,      \n        bool subscribed       \n    );\n\n    event PrivateVideoEvent (\n        uint id,                \n        uint videoId,              \n        address author\n    );\n\n    constructor(address _poolAddress) public {\n        poolAddress = _poolAddress;\n    }\n\n    function uploadVideo(string memory _videoHash, string memory _title, \n                            string memory _thumbnailHash,\n                            string memory _description, bool _isPrivate, \n                            uint _fees, bool _isSubscription) public {\n        \n        require(bytes(_videoHash).length > 0);  // validate if video hash is not empty\n        require(bytes(_thumbnailHash).length > 0);  // validate if thumbnail hash is not empty\n        require(bytes(_title).length > 0);      // validate if video title exists\n        require(msg.sender != address(0));      // validate if creator address exists\n\n        numVideo ++;        // Increment the video count (should this be included in reintrancy locks)?\n\n        videos[numVideo] = VideoMetadata(numVideo, _videoHash, _thumbnailHash,  _title, _description, _isPrivate, _fees, _isSubscription, msg.sender);   // Adding video to contract\n        emit VideoUploadEvent(numVideo, _videoHash, _thumbnailHash, _title, _description, _isPrivate, _fees, _isSubscription, msg.sender);  // Trigger upload video event\n\n    }\n\n    function buySubscription(string memory subscriptionId, string memory from, string memory to) public payable {\n        // require(subscription[subscriptionId].subscribed, \"Oops system error!! Duplicate subscription id found\");\n        require(msg.sender != address(0));      // validate if creator address exists\n        require((msg.sender.balance) > (uint(SUBSCRIPTION_AMOUNT)/1000));  // validate is user has sufficient balance\n        \n        (bool sent, bytes memory data) = poolAddress.call{value: uint(SUBSCRIPTION_AMOUNT)}(\"\");\n        require(sent, \"Failed to send Ether\");\n        subscription[subscriptionId] = SubscriptionMetadata(subscriptionId, to, from, msg.sender, true);\n        poolFunds += uint(SUBSCRIPTION_AMOUNT);\n        emit SubscriptionEvent(subscriptionId, to, from, msg.sender, true);\n    }\n\n    function buyPrivateVideo(uint videoId) public payable {\n        require(msg.sender != address(0));      // validate if creator address exists\n        require(msg.sender.balance > videos[videoId].fees);  // validate is user has sufficient balance\n        \n        (bool sent, bytes memory data) = videos[videoId].author.call{value: videos[videoId].fees}(\"\");\n        require(sent, \"Failed to send Ether\");\n        numPrivateVideo ++;\n        privateVideosMapping[numPrivateVideo] = PrivateVideoMetadata(numPrivateVideo, videoId, msg.sender);\n        emit PrivateVideoEvent(numPrivateVideo, videoId, msg.sender);\n    }\n}",
  "sourcePath": "/Users/sourav/workspace/uwm/CS839_Blockchain/xflicks/contracts/dflix.sol",
  "compiler": {
    "name": "solc",
    "version": "0.8.0+commit.c7dfd78e.Emscripten.clang"
  },
  "schemaVersion": "3.4.13",
  "updatedAt": "2023-05-01T15:41:44.288Z",
  "networkType": "ethereum",
  "devdoc": {
    "kind": "dev",
    "methods": {},
    "version": 1
  },
  "userdoc": {
    "kind": "user",
    "methods": {},
    "version": 1
  }
}